:1000000000308A0011280000223084008313000889
:10001000031910285230F700F70B0C28800B0A2820
:100020000034840183131F30830583161F149F142B
:100030001F159F1107309C00FF308312A00083160C
:100040001F149F141F159F1183121F10831609126E
:1000500083129412A01220088316870083122016A0
:100060002008831687008312A011200883168700BA
:100070000130831294000030831694000108C739C0
:1000800008388100831290010030F800920000309F
:100090008316920007309C0005084E281C08831226
:1000A0000D1383169D018610831286140830A1005B
:1000B000FA30A2000420A10B582883168610831260
:1000C00086101030A100FA30A2000420A10B632892
:0600D000831653286300B3
:02400E00BB37BE
:00000001FF
;PIC16F877A
