CCS PCM C Compiler, Version 4.105, 29375               14-jan-13 14:37

               Filename: E:\PIC16F877A - PWM\PWM.lst

               ROM used: 175 words (2%)
                         Largest free fragment is 2048
               RAM used: 6 (2%) at main() level
                         10 (3%) worst case
               Stack:    0 locations

*
0000:  MOVLW  00
0001:  MOVWF  0A
0002:  GOTO   004
0003:  NOP
.................... #include <16F877A.h> 
.................... //////// Standard Header file for the PIC16F877A device //////////////// 
.................... #device PIC16F877A 
.................... #list 
....................  
.................... #device adc=10 
....................  
.................... #FUSES NOWDT                    //No Watch Dog Timer 
.................... #FUSES XT                       //Crystal osc <= 4mhz for PCM/PCH , 3mhz to 10 mhz for PCD 
.................... #FUSES PUT                      //Power Up Timer 
.................... #FUSES NOPROTECT                //Code not protected from reading 
.................... #FUSES NODEBUG                  //No Debug mode for ICD 
.................... #FUSES NOBROWNOUT               //No brownout reset 
.................... #FUSES NOLVP                    //No low voltage prgming, B3(PIC16) or B5(PIC18) used for I/O 
.................... #FUSES NOCPD                    //No EE protection 
.................... #FUSES NOWRT                    //Program memory not write protected 
.................... #FUSES RESERVED                 //Used to set the reserved FUSE bits 
.................... #use delay(clock=4000000) 
....................  
.................... void main() 
.................... { 
*
0004:  CLRF   04
0005:  BCF    03.7
0006:  MOVLW  1F
0007:  ANDWF  03,F
0008:  BSF    03.5
0009:  BSF    1F.0
000A:  BSF    1F.1
000B:  BSF    1F.2
000C:  BCF    1F.3
000D:  MOVLW  07
000E:  MOVWF  1C
....................  
....................    setup_adc_ports(NO_ANALOGS); 
*
0012:  BSF    03.5
0013:  BSF    1F.0
0014:  BSF    1F.1
0015:  BSF    1F.2
0016:  BCF    1F.3
....................    setup_adc(ADC_CLOCK_DIV_2); 
0017:  BCF    1F.6
0018:  BCF    03.5
0019:  BCF    1F.6
001A:  BCF    1F.7
001B:  BSF    03.5
001C:  BSF    1F.7
001D:  BCF    03.5
001E:  BSF    1F.0
....................    setup_psp(PSP_DISABLED); 
001F:  BSF    03.5
0020:  BCF    09.4
....................    setup_spi(SPI_SS_DISABLED); 
0021:  BCF    03.5
0022:  BCF    14.5
0023:  BCF    20.5
0024:  MOVF   20,W
0025:  BSF    03.5
0026:  MOVWF  07
0027:  BCF    03.5
0028:  BSF    20.4
0029:  MOVF   20,W
002A:  BSF    03.5
002B:  MOVWF  07
002C:  BCF    03.5
002D:  BCF    20.3
002E:  MOVF   20,W
002F:  BSF    03.5
0030:  MOVWF  07
0031:  MOVLW  01
0032:  BCF    03.5
0033:  MOVWF  14
0034:  MOVLW  00
0035:  BSF    03.5
0036:  MOVWF  14
....................    setup_timer_0(RTCC_INTERNAL|RTCC_DIV_1); 
0037:  MOVF   01,W
0038:  ANDLW  C7
0039:  IORLW  08
003A:  MOVWF  01
....................    setup_timer_1(T1_DISABLED); 
003B:  BCF    03.5
003C:  CLRF   10
....................    setup_timer_2(T2_DIV_BY_16,255,1); 
003D:  MOVLW  00
003E:  MOVWF  78
003F:  IORLW  06
0040:  MOVWF  12
0041:  MOVLW  FF
0042:  BSF    03.5
0043:  MOVWF  12
....................    setup_ccp1(CCP_PWM); 
0044:  BCF    03.5
0045:  BCF    20.2
0046:  MOVF   20,W
0047:  BSF    03.5
0048:  MOVWF  07
0049:  BCF    03.5
004A:  BCF    07.2
004B:  MOVLW  0C
004C:  MOVWF  17
....................    setup_ccp2(CCP_PWM); 
004D:  BCF    20.1
004E:  MOVF   20,W
004F:  BSF    03.5
0050:  MOVWF  07
0051:  BCF    03.5
0052:  BCF    07.1
0053:  MOVLW  0C
0054:  MOVWF  1D
....................    set_pwm1_duty(1023); 
0055:  MOVLW  FF
0056:  MOVWF  15
0057:  MOVF   17,W
0058:  ANDLW  CF
0059:  IORLW  30
005A:  MOVWF  17
....................    set_pwm2_duty(1023); 
005B:  MOVLW  FF
005C:  MOVWF  1B
005D:  MOVF   1D,W
005E:  ANDLW  CF
005F:  IORLW  30
0060:  MOVWF  1D
....................    setup_comparator(NC_NC_NC_NC); 
0061:  MOVLW  07
0062:  BSF    03.5
0063:  MOVWF  1C
0064:  MOVF   05,W
0065:  MOVWF  05
0066:  MOVLW  03
0067:  MOVWF  77
0068:  DECFSZ 77,F
0069:  GOTO   068
006A:  MOVF   1C,W
006B:  BCF    03.5
006C:  BCF    0D.6
....................    setup_vref(FALSE); 
006D:  BSF    03.5
006E:  CLRF   1D
....................  
....................    while(true) 
....................    { 
....................       long int i,j=0; 
006F:  BCF    03.5
0070:  CLRF   24
0071:  CLRF   23
....................       for (i = 0; i < 1023; ++i) 
0072:  CLRF   22
0073:  CLRF   21
0074:  MOVF   22,W
0075:  SUBLW  03
0076:  BTFSS  03.0
0077:  GOTO   0AB
0078:  BTFSS  03.2
0079:  GOTO   07E
007A:  MOVF   21,W
007B:  SUBLW  FE
007C:  BTFSS  03.0
007D:  GOTO   0AB
....................       { 
....................          set_pwm1_duty(i); 
007E:  MOVF   22,W
007F:  MOVWF  79
0080:  MOVF   21,W
0081:  MOVWF  78
0082:  RRF    79,F
0083:  RRF    78,F
0084:  RRF    79,F
0085:  RRF    78,F
0086:  RRF    79,F
0087:  MOVF   78,W
0088:  MOVWF  15
0089:  RRF    79,F
008A:  RRF    79,W
008B:  ANDLW  30
008C:  MOVWF  77
008D:  MOVF   17,W
008E:  ANDLW  CF
008F:  IORWF  77,W
0090:  MOVWF  17
....................          set_pwm1_duty(j); 
0091:  MOVF   24,W
0092:  MOVWF  79
0093:  MOVF   23,W
0094:  MOVWF  78
0095:  RRF    79,F
0096:  RRF    78,F
0097:  RRF    79,F
0098:  RRF    78,F
0099:  RRF    79,F
009A:  MOVF   78,W
009B:  MOVWF  15
009C:  RRF    79,F
009D:  RRF    79,W
009E:  ANDLW  30
009F:  MOVWF  77
00A0:  MOVF   17,W
00A1:  ANDLW  CF
00A2:  IORWF  77,W
00A3:  MOVWF  17
....................          j++; 
00A4:  INCF   23,F
00A5:  BTFSC  03.2
00A6:  INCF   24,F
....................          delay_ms(4.88); 
....................       } 
00A7:  INCF   21,F
00A8:  BTFSC  03.2
00A9:  INCF   22,F
00AA:  GOTO   074
....................       j=0; 
00AB:  CLRF   24
00AC:  CLRF   23
....................  
....................  
....................    } 
00AD:  GOTO   070
.................... } 
....................  
....................  
00AE:  SLEEP

Configuration Fuses:
   Word  1: 3F31   XT NOWDT PUT NODEBUG NOPROTECT NOBROWNOUT NOLVP NOCPD NOWRT
